{
  "contractName": "Hospital",
  "abi": [
    {
      "constant": true,
      "inputs": [],
      "name": "time",
      "outputs": [
        {
          "name": "",
          "type": "uint256"
        }
      ],
      "payable": false,
      "stateMutability": "view",
      "type": "function",
      "signature": "0x16ada547"
    },
    {
      "constant": true,
      "inputs": [
        {
          "name": "",
          "type": "uint256"
        }
      ],
      "name": "patients",
      "outputs": [
        {
          "name": "TokenNumber",
          "type": "uint256"
        },
        {
          "name": "predictedTime",
          "type": "uint256"
        },
        {
          "name": "author",
          "type": "address"
        }
      ],
      "payable": false,
      "stateMutability": "view",
      "type": "function",
      "signature": "0x93119a83"
    },
    {
      "constant": true,
      "inputs": [],
      "name": "tokenStart",
      "outputs": [
        {
          "name": "",
          "type": "uint256"
        }
      ],
      "payable": false,
      "stateMutability": "view",
      "type": "function",
      "signature": "0xb25c4b6d"
    },
    {
      "constant": true,
      "inputs": [],
      "name": "tokenNum",
      "outputs": [
        {
          "name": "",
          "type": "uint256"
        }
      ],
      "payable": false,
      "stateMutability": "view",
      "type": "function",
      "signature": "0xbfa87e46"
    },
    {
      "constant": false,
      "inputs": [
        {
          "name": "_time",
          "type": "uint256"
        }
      ],
      "name": "bookAppointments",
      "outputs": [],
      "payable": false,
      "stateMutability": "nonpayable",
      "type": "function",
      "signature": "0x5b7b9a0a"
    },
    {
      "constant": false,
      "inputs": [
        {
          "name": "_token",
          "type": "uint256"
        }
      ],
      "name": "deleteAppointments",
      "outputs": [],
      "payable": false,
      "stateMutability": "nonpayable",
      "type": "function",
      "signature": "0x4a537844"
    }
  ],
  "bytecode": "0x60806040526000805560018055600060025534801561001d57600080fd5b506103608061002d6000396000f300608060405260043610610078576000357c0100000000000000000000000000000000000000000000000000000000900463ffffffff16806316ada5471461007d5780634a537844146100a85780635b7b9a0a146100d557806393119a8314610102578063b25c4b6d1461017d578063bfa87e46146101a8575b600080fd5b34801561008957600080fd5b506100926101d3565b6040518082815260200191505060405180910390f35b3480156100b457600080fd5b506100d3600480360381019080803590602001909291905050506101d9565b005b3480156100e157600080fd5b5061010060048036038101908080359060200190929190505050610213565b005b34801561010e57600080fd5b5061012d600480360381019080803590602001909291905050506102de565b604051808481526020018381526020018273ffffffffffffffffffffffffffffffffffffffff1673ffffffffffffffffffffffffffffffffffffffff168152602001935050505060405180910390f35b34801561018957600080fd5b50610192610328565b6040518082815260200191505060405180910390f35b3480156101b457600080fd5b506101bd61032e565b6040518082815260200191505060405180910390f35b60005481565b6003600082815260200190815260200160002060010154600080828254039250508190555060016000815480929190600101919050555050565b80600080828254019250508190555060026000815480929190600101919050555060606040519081016040528060025481526020018281526020013373ffffffffffffffffffffffffffffffffffffffff16815250600360006002548152602001908152602001600020600082015181600001556020820151816001015560408201518160020160006101000a81548173ffffffffffffffffffffffffffffffffffffffff021916908373ffffffffffffffffffffffffffffffffffffffff16021790555090505050565b60036020528060005260406000206000915090508060000154908060010154908060020160009054906101000a900473ffffffffffffffffffffffffffffffffffffffff16905083565b60015481565b600254815600a165627a7a72305820d0b7562cd224ca855210958fa9e706f1e82d4316576f8e740d08c6334cf65a7c0029",
  "source": "pragma solidity ^0.4.26;\r\n\r\ncontract Hospital {\r\n    uint256 public time = 0;\r\n    uint256 public tokenStart = 1;\r\n    uint256 public tokenNum = 0;\r\n\r\n    mapping(uint256 => Patient) public patients;\r\n\r\n    struct Patient {\r\n        uint256 TokenNumber;\r\n        uint256 predictedTime;\r\n        address author;\r\n    }\r\n\r\n    function bookAppointments(uint256 _time) public {\r\n        time += _time;\r\n        tokenNum++;\r\n        patients[tokenNum] = Patient(tokenNum, _time, msg.sender);\r\n    }\r\n\r\n    function deleteAppointments(uint256 _token) public {\r\n        time -= patients[_token].predictedTime;\r\n        tokenStart++;\r\n    }\r\n}\r\n",
  "sourcePath": "C:/Users/zaid bhimala/Desktop/PROJECTS/DEV.HNZ-DevHeat-2021/client/contracts/Hospital.sol",
  "compiler": {
    "name": "solc",
    "version": "0.4.26+commit.4563c3fc.Emscripten.clang"
  },
  "schemaVersion": "3.0.2",
  "updatedAt": "2021-11-13T05:57:56.773Z",
  "devdoc": {
    "methods": {}
  },
  "userdoc": {
    "methods": {}
  }
}