{
  "contractName": "Hospital",
  "abi": [
    {
      "constant": true,
      "inputs": [],
      "name": "userCount",
      "outputs": [
        {
          "name": "",
          "type": "uint256"
        }
      ],
      "payable": false,
      "stateMutability": "view",
      "type": "function",
      "signature": "0x07973ccf"
    },
    {
      "constant": true,
      "inputs": [],
      "name": "time",
      "outputs": [
        {
          "name": "",
          "type": "uint256"
        }
      ],
      "payable": false,
      "stateMutability": "view",
      "type": "function",
      "signature": "0x16ada547"
    },
    {
      "constant": true,
      "inputs": [
        {
          "name": "",
          "type": "uint256"
        }
      ],
      "name": "users",
      "outputs": [
        {
          "name": "author",
          "type": "address"
        },
        {
          "name": "name",
          "type": "string"
        },
        {
          "name": "age",
          "type": "uint256"
        },
        {
          "name": "blood",
          "type": "string"
        }
      ],
      "payable": false,
      "stateMutability": "view",
      "type": "function",
      "signature": "0x365b98b2"
    },
    {
      "constant": true,
      "inputs": [
        {
          "name": "",
          "type": "uint256"
        }
      ],
      "name": "patients",
      "outputs": [
        {
          "name": "TokenNumber",
          "type": "uint256"
        },
        {
          "name": "predictedTime",
          "type": "uint256"
        },
        {
          "name": "author",
          "type": "address"
        }
      ],
      "payable": false,
      "stateMutability": "view",
      "type": "function",
      "signature": "0x93119a83"
    },
    {
      "constant": true,
      "inputs": [],
      "name": "tokenStart",
      "outputs": [
        {
          "name": "",
          "type": "uint256"
        }
      ],
      "payable": false,
      "stateMutability": "view",
      "type": "function",
      "signature": "0xb25c4b6d"
    },
    {
      "constant": true,
      "inputs": [
        {
          "name": "",
          "type": "address"
        }
      ],
      "name": "registered",
      "outputs": [
        {
          "name": "",
          "type": "bool"
        }
      ],
      "payable": false,
      "stateMutability": "view",
      "type": "function",
      "signature": "0xb2dd5c07"
    },
    {
      "constant": true,
      "inputs": [],
      "name": "tokenNum",
      "outputs": [
        {
          "name": "",
          "type": "uint256"
        }
      ],
      "payable": false,
      "stateMutability": "view",
      "type": "function",
      "signature": "0xbfa87e46"
    },
    {
      "constant": false,
      "inputs": [
        {
          "name": "_time",
          "type": "uint256"
        }
      ],
      "name": "bookAppointments",
      "outputs": [],
      "payable": false,
      "stateMutability": "nonpayable",
      "type": "function",
      "signature": "0x5b7b9a0a"
    },
    {
      "constant": false,
      "inputs": [
        {
          "name": "_token",
          "type": "uint256"
        }
      ],
      "name": "deleteAppointments",
      "outputs": [],
      "payable": false,
      "stateMutability": "nonpayable",
      "type": "function",
      "signature": "0x4a537844"
    },
    {
      "constant": false,
      "inputs": [
        {
          "name": "name",
          "type": "string"
        },
        {
          "name": "age",
          "type": "uint256"
        },
        {
          "name": "blood",
          "type": "string"
        }
      ],
      "name": "register",
      "outputs": [],
      "payable": false,
      "stateMutability": "nonpayable",
      "type": "function",
      "signature": "0x637a0832"
    }
  ],
  "bytecode": "0x608060405260008055600180556000600255600060035534801561002257600080fd5b5061095a806100326000396000f3006080604052600436106100a4576000357c0100000000000000000000000000000000000000000000000000000000900463ffffffff16806307973ccf146100a957806316ada547146100d4578063365b98b2146100ff5780634a5378441461024b5780635b7b9a0a14610278578063637a0832146102a557806393119a831461035e578063b25c4b6d146103d9578063b2dd5c0714610404578063bfa87e461461045f575b600080fd5b3480156100b557600080fd5b506100be61048a565b6040518082815260200191505060405180910390f35b3480156100e057600080fd5b506100e9610490565b6040518082815260200191505060405180910390f35b34801561010b57600080fd5b5061012a60048036038101908080359060200190929190505050610496565b604051808573ffffffffffffffffffffffffffffffffffffffff1673ffffffffffffffffffffffffffffffffffffffff1681526020018060200184815260200180602001838103835286818151815260200191508051906020019080838360005b838110156101a657808201518184015260208101905061018b565b50505050905090810190601f1680156101d35780820380516001836020036101000a031916815260200191505b50838103825284818151815260200191508051906020019080838360005b8381101561020c5780820151818401526020810190506101f1565b50505050905090810190601f1680156102395780820380516001836020036101000a031916815260200191505b50965050505050505060405180910390f35b34801561025757600080fd5b5061027660048036038101908080359060200190929190505050610616565b005b34801561028457600080fd5b506102a360048036038101908080359060200190929190505050610650565b005b3480156102b157600080fd5b5061035c600480360381019080803590602001908201803590602001908080601f016020809104026020016040519081016040528093929190818152602001838380828437820191505050505050919291929080359060200190929190803590602001908201803590602001908080601f016020809104026020016040519081016040528093929190818152602001838380828437820191505050505050919291929050505061071b565b005b34801561036a57600080fd5b5061038960048036038101908080359060200190929190505050610813565b604051808481526020018381526020018273ffffffffffffffffffffffffffffffffffffffff1673ffffffffffffffffffffffffffffffffffffffff168152602001935050505060405180910390f35b3480156103e557600080fd5b506103ee61085d565b6040518082815260200191505060405180910390f35b34801561041057600080fd5b50610445600480360381019080803573ffffffffffffffffffffffffffffffffffffffff169060200190929190505050610863565b604051808215151515815260200191505060405180910390f35b34801561046b57600080fd5b50610474610883565b6040518082815260200191505060405180910390f35b60035481565b60005481565b60066020528060005260406000206000915090508060000160009054906101000a900473ffffffffffffffffffffffffffffffffffffffff1690806001018054600181600116156101000203166002900480601f0160208091040260200160405190810160405280929190818152602001828054600181600116156101000203166002900480156105685780601f1061053d57610100808354040283529160200191610568565b820191906000526020600020905b81548152906001019060200180831161054b57829003601f168201915b505050505090806002015490806003018054600181600116156101000203166002900480601f01602080910402602001604051908101604052809291908181526020018280546001816001161561010002031660029004801561060c5780601f106105e15761010080835404028352916020019161060c565b820191906000526020600020905b8154815290600101906020018083116105ef57829003601f168201915b5050505050905084565b6004600082815260200190815260200160002060010154600080828254039250508190555060016000815480929190600101919050555050565b80600080828254019250508190555060026000815480929190600101919050555060606040519081016040528060025481526020018281526020013373ffffffffffffffffffffffffffffffffffffffff16815250600460006002548152602001908152602001600020600082015181600001556020820151816001015560408201518160020160006101000a81548173ffffffffffffffffffffffffffffffffffffffff021916908373ffffffffffffffffffffffffffffffffffffffff16021790555090505050565b60003390506080604051908101604052808273ffffffffffffffffffffffffffffffffffffffff1681526020018581526020018481526020018381525060066000600354815260200190815260200160002060008201518160000160006101000a81548173ffffffffffffffffffffffffffffffffffffffff021916908373ffffffffffffffffffffffffffffffffffffffff16021790555060208201518160010190805190602001906107d0929190610889565b506040820151816002015560608201518160030190805190602001906107f7929190610889565b5090505060036000815480929190600101919050555050505050565b60046020528060005260406000206000915090508060000154908060010154908060020160009054906101000a900473ffffffffffffffffffffffffffffffffffffffff16905083565b60015481565b60056020528060005260406000206000915054906101000a900460ff1681565b60025481565b828054600181600116156101000203166002900490600052602060002090601f016020900481019282601f106108ca57805160ff19168380011785556108f8565b828001600101855582156108f8579182015b828111156108f75782518255916020019190600101906108dc565b5b5090506109059190610909565b5090565b61092b91905b8082111561092757600081600090555060010161090f565b5090565b905600a165627a7a7230582067d2fccb3fe6a975f5a62e2b6aa8f476ca07595992924f565af5399ba151e7860029",
  "source": "pragma solidity ^0.4.26;\r\n\r\ncontract Hospital {\r\n    uint256 public time = 0;\r\n    uint256 public tokenStart = 1;\r\n    uint256 public tokenNum = 0;\r\n    uint256 public userCount = 0;\r\n\r\n    mapping(uint256 => Patient) public patients;\r\n    mapping(address => bool) public registered;\r\n    mapping(uint256 => User) public users;\r\n\r\n    struct Patient {\r\n        uint256 TokenNumber;\r\n        uint256 predictedTime;\r\n        address author;\r\n    }\r\n\r\n    struct User {\r\n        address author;\r\n        string name;\r\n        uint256 age;\r\n        string blood;\r\n    }\r\n\r\n    function bookAppointments(uint256 _time) public {\r\n        time += _time;\r\n        tokenNum++;\r\n        patients[tokenNum] = Patient(tokenNum, _time, msg.sender);\r\n    }\r\n\r\n    function deleteAppointments(uint256 _token) public {\r\n        time -= patients[_token].predictedTime;\r\n        tokenStart++;\r\n    }\r\n\r\n    function register(\r\n        string memory name,\r\n        uint256 age,\r\n        string memory blood\r\n    ) public {\r\n        address account = msg.sender;\r\n        // require(!registered[account]);\r\n        // registered[msg.sender] = true;\r\n        users[userCount] = User(account, name, age, blood);\r\n        userCount++;\r\n    }\r\n}\r\n",
  "sourcePath": "C:/Users/zaid bhimala/Desktop/PROJECTS/DEV.HNZ-DevHeat-2021/client/contracts/Hospital.sol",
  "compiler": {
    "name": "solc",
    "version": "0.4.26+commit.4563c3fc.Emscripten.clang"
  },
  "schemaVersion": "3.0.2",
  "updatedAt": "2021-11-13T10:44:25.112Z",
  "devdoc": {
    "methods": {}
  },
  "userdoc": {
    "methods": {}
  }
}